:10400000601B00208561000003A9000071610000B1
:10401000716100007161000071610000000000002A
:1040200000000000000000000000000075620000B9
:104030007161000000000000E5610000116C0000EB
:10404000756400007564000075640000756400000C
:1040500075640000756400007564000075640000FC
:1040600075640000756400007564000075640000EC
:1040700075640000756400007564000075640000DC
:10440000FFFFFFFFDFCFFFFFFCFF0300FFFF030005
:10441000FCFF0300FFFF0300FCFF0300FFFF03009E
:10442000FC7F0020FF7F0020FCFF0D40FFFF0D40C0
:0C443000FCFF0D40FFFF0D40FFFFFFFFF1
:10443C007BB972B90029BEBF00204FF0004106E0E5
:10444C0008BF00281CBF6FF000414FF0FF3000F098
:10445C0057B8ADF1080C6DE904CE002909DB002B2F
:10446C001ADB00F057F8DDF804E0DDE9022304B0B4
:10447C007047404261EB4101002B1BDB00F04AF816
:10448C00DDF804E0DDE9022304B0404261EB4101B8
:10449C00524263EB43037047524263EB430300F019
:1044AC0039F8DDF804E0DDE9022304B0404261EBA9
:1044BC0041017047524263EB430300F02BF8DDF8E7
:1044CC0004E0DDE9022304B0524263EB430370477E
:1044DC0053B94AB9002908BF00281CBF4FF0FF315F
:1044EC004FF0FF3000F00CB8ADF1080C6DE904CEC4
:1044FC0000F010F8DDF804E0DDE9022304B07047A9
:10450C00704700BF034613F8012B002AFBD1181A81
:10451C00013870472DE9F04786468C460846089EC0
:10452C00154674461946002B40F0C2808542B2FAFB
:10453C0082F245D94AB1C2F1200300FA02FC2EFAEC
:10454C0003F3954043EA0C0C94404FEA154EA8B285
:10455C00BCFBFEF8230C0EFB18CC08FB00F943EA5D
:10456C000C43994528D9EB1808F1FF3704D299452B
:10457C0002D9A8F102072B44A3EB0903A4B2B3FBA5
:10458C00FEFC0EFB1C330CFB00F044EA0344A0427F
:10459C0014D92C190CF1FF3304D2A04202D9ACF17E
:1045AC0002032C44241A43EA07401EB1D4400023D2
:1045BC0034607360BDE8F0874746DDE76346F1E79A
:1045CC0092BB431B01214FEA154EAFB2B3FBFEFC6D
:1045DC00200C0EFB1C330CFB07F840EA03439845F8
:1045EC0062D9EB180CF1FF3004D2984502D9ACF12A
:1045FC0002002B44A3EB0803A4B2B3FBFEFC0EFB9E
:10460C001C330CFB07F744EA0344A7424ED92C1980
:10461C000CF1FF3304D2A74202D9ACF102032C44B3
:10462C00E41B43EA0040C0E7C2F1200320FA03F187
:10463C00954090402EFA03F303434FEA154EAFB268
:10464C00B1FBFEFC0EFB1C10190C0CFB07F841EA2D
:10465C000041884504FA02F422D969180CF1FF30A4
:10466C0004D2884502D9ACF102002944A1EB08011F
:10467C009BB2B1FBFEFC0EFB1C110CFB07F743EAD3
:10468C0001439F420ED9EB180CF1FF3104D29F422B
:10469C0002D9ACF102012B44DB1B41EA004192E749
:1046AC006046E3E76146F7E76046A3E76346B7E792
:1046BC00834206D916B9002108467BE7C6E900E01B
:1046CC00F9E7B3FA83F78FB9834201D3724508D85F
:1046DC00BEEB020460EB030301209C461EB90021D3
:1046EC0068E73846FAE7C6E9004CF8E7C7F1200C52
:1046FC00BB4022FA0CF41C432EFA0CF120FA0CF3FA
:10470C00B84001434FEA14490EFA07F5B3FBF9F828
:10471C001FFA84FE09FB18300B0C08FB0EFA43EA57
:10472C0000439A4502FA07F240D9E31808F1FF302A
:10473C0004D29A4502D9A8F102002344A3EB0A0340
:10474C0089B2B3FBF9F809FB183308FB0EFE41EAFA
:10475C0003418E452CD9611808F1FF3304D28E45E4
:10476C0002D9A8F10203214443EA0040A0FB0298BD
:10477C00A1EB0E014145CE46434602D306D14D4531
:10478C0004D2B9EB020E68EB04030138002EA6D05C
:10479C00B5EB0E0261EB030101FA0CFC22FA07F3F4
:1047AC004CEA0303F940C6E9003198E74046C5E7F7
:1047BC004346D9E770B52DED068B3C4A3C480321A6
:1047CC0005F0CCFF3B4A3A48032105F0C7FF3A48B5
:1047DC0006F083FB40B9BDEC068B384A3448BDE883
:1047EC007040012105F0BABF334806F076FB002873
:1047FC00F1D0314806F071FB0028ECD03048DFEDE9
:10480C0031AA2F4E304D05F0A6FB2F4805F0A3FB27
:10481C002E4805F0A0FB002407EE904AB8EE679AEC
:10482C00B7EE00AA29EE2A9AF6EE008AB0EE490AF3
:10483C0004F032FEB0EE408AB7EE080A29EE000A08
:10484C0004F02AFE38EE0A8A70EE0A9A28EE288ABC
:10485C0039EE090A04F020FEB4EEE88AF1EE10FA03
:10486C0069EEA89ACCBF0121002130EE0A9A30469D
:10487C0005F05DFBF4EEE89AF1EE10FA29EE289AB9
:10488C00CCBF01210021284605F051FBB4EEE89A7B
:10489C00F1EE10FACCBF012100210C4805F047FBCA
:1048AC0001340021642006F0DEFBB5E7BCC2000039
:1048BC0060B90000FDC200005CB7000035C3000009
:1048CC0058BC00000AD7233C50BC000048BC000078
:1048DC002DE9F04F91B08407009302F0040302938A
:1048EC00C2F3C20303F10103DDF8688003920546AD
:1048FC000E46059340F0BA81041D30B1072909D842
:10490C006FF01B0011B0BDE8F08F01F007063444C6
:10491C00C6F10806009B4FF00009591E4FF0040A1F
:10492C004FF0FF330193CDF810904F46CB465346D2
:10493C000DB1009820600598002800F3E880984895
:10494C00009A824203D397488242C0F0E080039AD7
:10495C00A4EB050E92074FEA9E0000F103810F2F86
:10496C0000F2B180002D00F0058107F140020DEB43
:10497C00020C019A0CF8200C0CF8102C0498013045
:10498C000490E7E07A285DD84B280ED8472859D8F0
:10499C0029282DD8252852D054D820287AD023382D
:1049AC00D0F1000B4BEB000B74E04C382E2849D89F
:1049BC00DFE800F0704848484848484848484848AC
:1049CC004B484848484848484859484B4B5959590E
:1049DC00704B6D487048184B184848827F4B4848BC
:1049EC004B487F0000204FF0000B4FF0040A38E0DA
:1049FC002A38C0B2012202FA00F010EA0E0F49D197
:104A0C0010F0625C2FD110EA020B43D06046013CDF
:104A1C005444B4FBFAF40AFB04F4002D61D0A3EB6C
:104A2C00050CA444B4453FF66BAF002868D1042BA9
:104A3C0047D158F8043B2360043404232AE0019A3C
:104A4C00013A01924FF0000B24E011F8010C6C2894
:104A5C0034D111F8023C00206C2B8346C5D14FF0A9
:104A6C00080A5346D3E708F1070828F0070807346B
:104A7C00F8E802AB24F0070435B106982044B042A4
:104A8C003FF63EAFC4E900AB08344FF0000B4FF0DB
:104A9C00080A534611F8010F002878D0BBF1000F1B
:104AAC007FF470AF2528F5D1019B013301934FF0B2
:104ABC00010B4FF0040AECE7584694E700208346BC
:104ACC00A5E7082B02D06FF015001BE708F10708CB
:104ADC0028F00708B8EC027B84ED007B083408232F
:104AEC00D8E768B9042B02D108F10408A4E7082B15
:104AFC00E9D108F1070828F0070808F10808EDE7E4
:104B0C0005980138059058F8040B009010E7039AAB
:104B1C00900720D5A4EB050E4FEA9E004FF0010C38
:104B2C00BEF5007FCFD20F2FCDD8F5B107F14002E3
:104B3C000DEB020EC0B2019A0EF8200C0EF8102CE0
:104B4C00BCF1000F3FF41AAF60F07F000EF8200CA0
:104B5C0009F101090137C5F10802043406924FF638
:104B6C00DA7E97E74FF0000CDAE7BCF1000F01D0CA
:104B7C000136EFE7029A0236002AEBD10098CDE914
:104B8C000631FFF7BFFCDDE906310644E2E7631BA3
:104B9C00B3F5806F97D23DB9A6F10804E018B1E6E1
:104BAC0074B5000000CC0000029A28609B082B70A2
:104BBC009DF81030C2B1EB7085F80290B9F1000F7E
:104BCC0005D008A80022C5F1010C97420ED1C5F101
:104BDC0001030DF120084FF0000A01930DF1300B89
:104BEC00574512D1601B8DE66B70E5E710F8013B61
:104BFC00190608D50CEB040EB64503F07F033FF6FF
:104C0C007FAE04F8013B0132DFE7B9F1000F03D0AE
:104C1C0098F90020002A17DB029BD3B11AF80B205D
:104C2C0004F8012B0022019B18191044B0423FF6E6
:104C3C0067AE98F8000004F8010B00990392204627
:104C4C0006F09DFA039A14440AF1010A08F10108CE
:104C5C00C6E798F8002055F822300093029B45F8DF
:104C6C0022300098FFF74EFC421CDCE76FF00D0081
:104C7C0048E600BF2DE9F04F97B000AF90F802A0C6
:104C8C00D7F880B03B62CBF3C0030446FA62BB6139
:104C9C00894641B9457800780AEB800020444D459F
:104CAC0017D8A0EB0409E378FB61BAF1000F02D02E
:104CBC001BF0010F16D1FB6953BBFB6A1BB13A6A9F
:104CCC004946204698474D4628465C37BD46BDE8C8
:104CDC00F08F461C3046FFF715FC0130304409F1CB
:104CEC000109DCE7237862687A62FA6A99007961D3
:104CFC0004EB8301002A40F000814D460E4601EB87
:104D0C000A094FF000084E454CD101EB0A0610E0A1
:104D1C001BF0020FD1D023789A007A6162687A6214
:104D2C00FA6A04EB8301002A77D14D4601EB0A069F
:104D3C0090461BF0050F0CBF02230123FB62FB699D
:104D4C0006EB430A0BF00203BB625645BCD016F8C7
:104D5C00021B16F8013C54F82390994B994502D349
:104D6C00984B994536D3BB69002B40D0786A05F037
:104D7C00A6F900283BD0E9468AB06A46924B5361AB
:104D8C007B6AC2E906314FF4007313848F4B42F8EF
:104D9C00103F8F4800234FF4125100F025FC023DC8
:104DAC00CD46D2E716F8013BF96254F82300FFF721
:104DBC00A9FBD7F88430F96A01304BB1D7F88830A9
:104DCC0098453EBFD7F8843023F8180008F1010845
:104DDC00054498E7BB6923B1786A05F070F900289F
:104DEC00C9D11BF0010F05D1FB6AED1AADE7BB6A07
:104DFC00002BAAD04846FFF785FBD7F8843053B177
:104E0C00D7F8883098453FBFD7F88420431C22F848
:104E1C00183008F10108054497E7BAF1000F72D079
:104E2C001BF0040672D0D046002607F1480052460B
:104E3C003B61B96206F0A3F9B96A3B6901EB0A025E
:104E4C00BA62FA69F9695200FA60BA6A02EB410275
:104E5C003A610BF00202BA603A69B96A8A4257D1D8
:104E6C0062787A621BF0020F32440CBF4FEA580191
:104E7C0000211BF0010FD2B240F09F801BF0040FF9
:104E8C0014BF40460020BB616270A070E1703A6AAA
:104E9C007969FB6A20469847051EFFF615AFBB697A
:104EAC0023707B6A6370FB69E37041463A6AFB6A64
:104EBC0084F802A007F148009847B0F10008C0F24E
:104ECC00BB807B693A6AA9EB0A01C91AFB68C91A4B
:104EDC00D7E90A0398470028C0F2B080A84408EB31
:104EEC0000054FF0000B07F1380AB34572D30021CF
:104EFC003A6AFB6A08469847E6E656464FF00008C1
:104F0C0007F1380093E75646D04697E7B04695E749
:104F1C00BA6A12F8021BBA6212F8015C284A54F8F9
:104F2C002500904202D3274A90421ED3BA6932B16F
:104F3C00786A7B6005F0C3F87B6800288CD1BA686E
:104F4C0002BB08F1280207F1300C08F1010094446F
:104F5C0007F1580252FA80F008F102080CF8101C04
:104F6C005FFA88F800F8105C76E7BA693AB1786AAB
:104F7C007B6005F0A4F87B6800287FF46DAF1BF014
:104F8C00010F09D006F1280207F13000711C161828
:104F9C0006F8205CCEB25FE71BF0040F3FF45CAF69
:104FAC0008F1280207F1300008F1010102EB0008BA
:104FBC0008F8105C5FFA81F84EE7002063E700BF49
:104FCC0074B5000000CC000057C3000004000001C1
:104FDC0058B900001BF80A3087F8373054F8239082
:104FEC00D7F884302BB3D7F888309B4521D2D7F82B
:104FFC00843033F81B803A6AFB6A012107F13700D1
:10500C00984700281ADB0544B8F1000F06D1484632
:10501C00FFF778FA00F101081FFA88F83A6AFB6A80
:10502C00414648469847002808DB05440BF1010B24
:10503C005BE74FF00008DEE7454645E6054643E6EC
:10504C00014B1860704700BF0000002080B505467A
:10505C000E461746984602F0D9FD034606F07AFA3A
:10506C00DFF81890044649F800304246304639467D
:10507C00A84754F8090001F099F800BF0800000097
:10508C00EFF31183102282F31288BFF36F8F054A5E
:10509C0005491160054A0021116083F31188BFF3A3
:1050AC006F8F70476409002000127A00600900209D
:1050BC002DE9F047DFF85880044607464FF0010908
:1050CC0014B93846BDE8F08794FAA4F5B5FA85F51D
:1050DC0009FA05F32E0108EB05156FEA030A24EA19
:1050EC0003042B7B002BEBD058F806301B694BB913
:1050FC004644042273682846196807EA0A0705F033
:10510C00BDFADDE7284698470028D9D1F0E700BF63
:10511C00A8B9000030B51049104889B0002206F03B
:10512C0006F80F4D0F4900220023CDE90623002479
:10513C000E23CDE90334CDE901440B4B00944FF41D
:10514C004072284602F026FB0849284605F0F5FE79
:10515C00204609B030BD00BF7D510000E0060020A4
:10516C0020020020200B0020995400001AC40000DB
:10517C00014802F07DBA00BF100200202DE9F04773
:10518C00804620480F4605F051FA0646002832D0DA
:10519C0000252846BDE8F087237B83B12368DB68B4
:1051AC000BB120469847636883F8069023681B6907
:1051BC00CBB9636804221968204605F05FFA013602
:1051CC0010345445E8D3B8F1000FE2D0002DDFD0F5
:1051DC002846FFF76DFF0546002FF7D0002164200D
:1051EC0005F041FFF2E7204698470028E1D009FA84
:1051FC0006F31D43E3E7044CDFF810A005464FF01F
:10520C000109DEE778090020A8B90000B8B9000050
:10521C00014B53F82000704774BC000008B50346DE
:10522C0008462BB1044A136000F076FC002008BD40
:10523C006FF01500FBE700BF0400002010B5044C14
:10524C00237813B9034802F013FA0123237010BD1D
:10525C00FE0A00201002002010B504460B4805F091
:10526C00E5F95CB1BFF35B8F094B53E8001F0139C3
:10527C0043E80012002AF8D1BFF35B8F054805F014
:10528C0062FF0548BDE8104002F0F2B97009002039
:10529C0074090020E0060020100200200020064BBC
:1052AC00BFF35B8F014653E8000F43E80012002A5E
:1052BC00F9D1BFF35B8F70477009002070B5FFF711
:1052CC00EDFF084C084E0546B44200D370BD636830
:1052DC005B792BB123685B6813B12946204698474C
:1052EC001034F1E7A8B90000B8B9000010B5044CAF
:1052FC000449204605F019F8034B1C6010BD00BF93
:10530C00D401002060BC0000680900200D4A0E4842
:10531C00002310B513700D4A13600D4A4FF47A71C7
:10532C001360FFF77BFFFFF7E1FF0A4B0A491846B2
:10533C008B4200D310BD1A1A5C6812110132227113
:10534C001033F5E7FF0A002053A600007009002077
:10535C0074090020A8B90000B8B900000146002269
:10536C000148002305F002B8D4010020014805F0E3
:10537C009BB800BFD4010020024B0146186805F011
:10538C00EEB800BF68090020014805F023B900BF42
:10539C00D401002070B5264B1878002846D0FFF7B2
:1053AC00E5FF054600283ED1224B234C1B68002B01
:1053BC0012DD05F0BAFE0A220023FFF789F8D4E9C2
:1053CC000032C01A40F2E93361EB0201984271F1EC
:1053DC00000101D3FFF772FFD4E9003213F57A73A1
:1053EC0042F10002C4E90032BDE87040FFF7CCBFC7
:1053FC0063685B7923B1236829461B68204698476C
:10540C001034B442F4D32846FFF7B6FFBFF35B8FDA
:10541C000A4B53E8001F013943E80012002AF8D167
:10542C00BFF35B8FC0E7064C064EEAE770BD00BFCA
:10543C00FE0A002070090020D80600207409002004
:10544C00A8B90000B8B9000070B50D4D297861B944
:10545C000120FFF793FE0B4C0B4EB44206D3FFF723
:10546C0099FF0028FBD101232B7070BD63685B7919
:10547C001BB1236820469B6898471034EDE700BFAA
:10548C00FF0A0020A8B90000B8B9000000212DE9DE
:10549C00F0470846FFF772FE044658B34FF4FA780B
:1054AC004FF0000906F056F81B4B1C4A1B581360B2
:1054BC0033B11B4B1B68092B02DD1A4802F0D8F8DC
:1054CC00194FDFF860A0002544B12046FFF7F0FD2E
:1054DC00044618B94FF0FF384FF0FF39FFF75AFF69
:1054EC00064628B9B5B942464B46504602F0F4F888
:1054FC003546E9E74FF0FF384FF0FF39D2E72B681C
:10550C009B691BB100221146284698471035BD42B5
:10551C00F5D3E8E7054DFAE7080000006C09002018
:10552C007409002010020020B8B90000A8B90000CE
:10553C0013B5184805F07AF8174B1B7873B1EFF3D5
:10554C001184102383F31288BFF36F8FFFF722FFB0
:10555C0084F31188BFF36F8F02B010BD0F4B1B6823
:10556C00002BF9D050B900220023CDE900230C48C0
:10557C0042F21072002302F025FEEDE70928EBD170
:10558C00074805F0E0FD074802B0BDE8104002F006
:10559C006FB800BF74090020FF0A00206C090020BE
:1055AC00E00600201002002010B5064B1B680446D4
:1055BC0098472146A060044804F057FFBDE810400E
:1055CC00FFF7B6BF04000020D4010020044A054BAD
:1055DC009B1AB1EBD30F34BF52F831000020704747
:1055EC0058B90000A8B900002DE9F04F8FB004AFF6
:1055FC00C1F34A28B8600D4691467B600C0DB8F19A
:10560C00000F63D0002607F114034FF0040B4FF08A
:10561C000A0AC7F80C80C7E907667E620193CDF8C9
:10562C0008B0CDF800A007F11C03F96832464846D3
:10563C00FFF720FBB0F5006F03461CD36C468AB015
:10564C00D9F8041004AB2648C3E9050140F2FF71F8
:10565C00D9611A464FF400711984224B42F8103F5D
:10566C00214833464FF41251FFF7BEFFA5462C37A5
:10567C00BD46BDE8F08FC0F30A0804F117001844CA
:10568C0020F0070080083B60FFF768FE68F35325A5
:10569C00044690B13B68154AC7E9083600F1100181
:1056AC0007F11403F961CDE900A3CDF808B0F9684E
:1056BC0007F11C034846FFF7DDFA68F353257B68B6
:1056CC00B9682A46204604F0F9FFD0E704F1170028
:1056DC0020F007008008FFF741FE0446EDE700BF0D
:1056EC002FC400000400000170B900009BA600004C
:1056FC002DE9F04F87B0DDE91279DDE9105A044647
:10570C00039193469846BFB1CDF800903B46524664
:10571C0010210020CDF81490FFF7DAF8B0F5006FE7
:10572C0006460AD3184A194840F2FF73022107B003
:10573C00BDE8F04F05F01BB83E4605F117003044AC
:10574C0020F0070004F007048008FFF707FE0BF0B9
:10575C00070BE40044EA8B1444EA462444EA05545B
:10576C00054640B13FB1CDF800903B46524631461C
:10577C001030FFF7ADF8039943462246284607B090
:10578C00BDE8F04F04F09ABF6EC4000070B9000081
:10579C00406820B1034BC01A40F3CF0070474FF064
:1057AC00FF30704758B900000EB403B503AB014687
:1057BC0053F8042B0448019300F068FE02B05DF826
:1057CC0004EB03B0704700BFC5A70000CA0605D4A0
:1057DC008B064CBF02490349FFF7E6BF704700BF79
:1057EC00A7C40000A6C400002DE9F04F8BB09B4667
:1057FC00169B06939DF854A0179B0593189B199E16
:10580C00049304460D469046BAF1000F00F09E80BA
:10581C0006F00103089306F00803079306F480735F
:10582C00099304F029FF06F00209024600283BD038
:10583C008F492046FFF7B8FF0746B9F1000F08D093
:10584C0016F0440F32D18B492A462046FFF7ACFFA5
:10585C000744089B53B1884B884953F82A20884B3E
:10586C002046002A08BF1A46FFF79EFF099B002B13
:10587C0048D0079B002B62D1B8F1000F64D081494E
:10588C0042462046FFF790FF0546069B3D44002B01
:10589C006BD1049B002B71D1F30700F1E2803146F0
:1058AC002046FFF793FFD6E00746C6E7764B18680D
:1058BC000028CDD0754B4FF47A791B68B5FBF3F506
:1058CC004FF46163B5FBF0F100FB115509FB05F5D5
:1058DC004FF03C0CB1FBF3F203FB1211B5FBF0FEE5
:1058EC00B1FBFCF300FB1E550CFB131109FB05F57A
:1058FC000091B5FBF0F56649CDE901E52046FFF7CF
:10590C0053FFA5E7079BEBB1624B634953F82A2081
:10591C002046FFF749FF0546B8F1000F05D059495D
:10592C0042462046FFF740FF0544BBF1000FACD0C8
:10593C005A495A462046FFF737FF0544A5E74FF072
:10594C00000BE1E7079DE7E745469EE7BBF1010F3A
:10595C00069B06D1002B64D1049B002B7BD0002529
:10596C000CE0002BF8D04E485CE04E48069B4E49AC
:10597C00224604F073FB049B002B68D0DFF83881BF
:10598C00DFF83891049F3146102F204628BF10278E
:10599C00FFF71CFF4FF0000B5D4545DC059B4946AE
:1059AC001A782046FFF700FF4FF0010B1BF0070F92
:1059BC0003D141462046FFF7F7FE5F453BD9059BD7
:1059CC00494613F80B202046FFF7EEFE0BF1010BB6
:1059DC00BBF1100FEAD1354920464FF0000BFFF711
:1059EC00E3FE5A46059B9A5CA2F120015F2928BF71
:1059FC002E222F492046FFF7D7FE0BF1010BBBF1EE
:105A0C00100F1DD01BF0070F03D141462046FFF7A6
:105A1C00CBFE5F455A46E5D841462046FFF7C4FE0B
:105A2C00EBE720485546A1E741462046FFF7BCFE70
:105A3C000BF1010BB0E71F492046FFF7B5FEC5E798
:105A4C00059B3B440593049BDB1B04939AD1BAF151
:105A5C00000F7FF421AF20460BB0BDE8F04F04F0EF
:105A6C009EBE074A05492046FFF79EFE17E700BF7A
:105A7C00AEC40000B2C4000084BC0000D7C4000057
:105A8C00A9C40000DAC40000800900207C090020B1
:105A9C00BBC4000098BC0000DEC40000E4C40000DD
:105AAC00FBA70000C5A7000099640000F3C4000028
:105ABC00F5C40000EFC40000F1C40000E9C400000C
:105ACC0073B542F20F738B4228BF0B4605680F4A21
:105ADC0004460521684602F0B3FB63680C495B6819
:105AEC0006460B22284604F04CFE63683246694693
:105AFC0028465B6804F045FE636806495B681B2218
:105B0C00284604F03EFE02B070BD00BF57C6000030
:105B1C0014C50000F8C40000074A0021012390427C
:105B2C0006D8064A01B901231360054B186070476B
:105B3C0040085B000121F2E740420F007C09002085
:105B4C0080090020F8B5074F0D4604464618B442AC
:105B5C0001D12846F8BD14F8011BBB6801485B68ED
:105B6C009847F4E778B7000008B50348034A0021CA
:105B7C00121A04F0B8FE08BD20020020040B00200D
:105B8C000748084A084908B5121A04F0AEFE07483F
:105B9C00074A0849BDE80840121A04F0A6BE00BF27
:105BAC00000000202002002000CC0000000000209B
:105BBC000000002000CC00002DE9F84F804600AF1B
:105BCC000C46002965D0E9468AB0D1E90012A368D9
:105BDC006D4639482E464FF0050AC5E90501C5E961
:105BEC00072346F810AF3548324600234FF42151B5
:105BFC00FFF7FAFCCD46D4E903126369AD46304891
:105C0C00C5F810A0C5E90501C5E907232B480023F9
:105C1C0032464FF42151FFF7E7FCCD46E369294AA0
:105C2C002648DFF8B0B0012104F0A1FD264600257E
:105C3C004FF00A0AE9468EB0D6E908E0D6E90A1315
:105C4C006A46C2F81CE005F1010EC2E908E0A81C86
:105C5C00C2E90A01E91CC2E905B5C2E90C1342F814
:105C6C0010AF1648002345F240010435FFF7BCFC89
:105C7C00102DCD4606F11006DCD1236E124A0F48CA
:105C8C00012104F074FDA369104A0C48012104F0B1
:105C9C006EFDB8F1010F07D1EFF305830C4A0748ED
:105CAC00103B414604F063FD2146404601F05CFB8D
:105CBC00BD46BDE8F88F00BF5AC5000088B900008A
:105CCC0089C50000B8C500000AC6000019C600004E
:105CDC0047C60000C7C5000030BFFFF7FDBF00BFBF
:105CEC002DE9F0410B4EDFF8348006EB0807CC1B96
:105CFC00054632460849204605F041FAA0194246AD
:105D0C000021083C05F049FA6C6607F10800BDE873
:105D1C00F08100BF00000000B8B9000004000000D2
:105D2C00054B9A699B689A421FBF044A536843F01B
:105D3C0080535360704700BFC40A002000ED00E0A0
:105D4C0070B52A4C06460D4629482A4904F0DAFD5E
:105D5C00A36ADB0647D52648274904F0D3FD11205A
:105D6C00A36A1C0704D52248244904F0CBFD122059
:105D7C001E4CA36A990712D521491D4804F0C2FD97
:105D8C00636BA26A120609D51E4A1948012104F058
:105D9C00EEFC1EB1A36A23F08003A3621320134C04
:105DAC00A36ADE0704D51248174904F0ABFD142092
:105DBC00A36A9C0604D50E48144904F0A3FD1520D3
:105DCC000A4B9A6AD10658BF9A6A9A6A920642BFDF
:105DDC005A6A22F400525A629A6A42F0FF029A629C
:105DEC0000232B7070BD1020BAE700BF00ED00E05F
:105DFC0088B900005AC6000070C60000A3C6000097
:105E0C00B6C60000CEC60000E4C6000003C7000002
:105E1C0010B5204C2049214804F074FDA36A990167
:105E2C0036D51E481E4904F06DFD1E20A36ADA010A
:105E3C0004D51A481B4904F065FD1F20154CA36AB4
:105E4C001B0304D51548184904F05CFD2120A36AF6
:105E5C00590304D51148154904F054FD22200D4C6A
:105E6C00A36A9A0304D50D48114904F04BFD232075
:105E7C00A36ADB0304D509480E4904F043FD242032
:105E8C00044A936A6FEA03436FEA1343936210BDAB
:105E9C001D20CBE700ED00E032C7000088B9000000
:105EAC004AC700005DC7000077C7000095C7000017
:105EBC00BAC70000D4C7000070B5294C06460D4681
:105ECC002848294904F01EFDA36AD9043CD525486D
:105EDC00264904F017FD1720A36A1A0504D521489A
:105EEC00234904F00FFD18201D4CA36A9B0512D505
:105EFC001C48204904F006FDA36BA26A100409D5C6
:105F0C001D4A1848012104F032FC1EB1A36A23F487
:105F1C000043A3621920124CA36A590504D51148F9
:105F2C00164904F0EFFC1A20A36ADA050ED50D48C9
:105F3C00134904F0E7FC1B20094A936A43F47F439E
:105F4C00936200232B7070BD1620C5E7A36A9B04D7
:105F5C00F2D504480B4904F0D5FC1C20ECE700BF3B
:105F6C0000ED00E088B90000FFC7000015C8000074
:105F7C00A3C6000026C800003FC8000054C800009B
:105F8C006FC8000003C700002DE9F041624B9CB0C4
:105F9C00D3F8048000AF0546C8F30804002686F346
:105FAC001188BFF36F8F02F07F43B3F17F4F07D19E
:105FBC0002F00C03082B12D15849594804F0A2FCEA
:105FCC00002635460023FB71E31E092B00F283806B
:105FDC00DFE803F00A797C7581818181817F10076C
:105FEC004CBF0D460126EDE74E494D484A4C04F096
:105FFC0089FC0023FB71E36A9A0705D54A49484896
:10600C0004F080FC002431E0E36A002B01DA4749FC
:10601C00F5E7E36A5B00F5D54549414804F072FCAD
:10602C006369AA6943F480736361BFF34F8FBFF355
:10603C006F8F636932F8022C23F480736361BFF3B2
:10604C004F8FBFF36F8F4DF602739A4207D0A36A3E
:10605C00DBB23BB3F91D0120FFF772FE31E02B6878
:10606C00344A2F48012104F082FB2C68FB79ABB930
:10607C006822294607F1080005F081F87B6A002E9A
:10608C0045D0C3F3080222B96FEA53236FEA4323C6
:10609C007B6207F108012046FFF78EFD7037BD4685
:1060AC00BDE8F081A36A13F47F4F04D0F91D0120E1
:1060BC00FFF702FF05E0A36AB3F5803FA2D3FFF719
:1060CC00A7FE0446D2E7F91D0020C5E7F91D002004
:1060DC00EEE7194993E7194A194B18F4F87FE8468B
:1060EC008AB018BF13466A461649C2E905134FF425
:1060FC0000731384103C144BD46142F8103F0848D1
:10610C0000234FF41151FFF76FFAC5467AE723F4D9
:10611C00FF7323F00103BBE700ED00E0B5C80000FE
:10612C0088B90000E0C80000F7C8000018C90000DA
:10613C0026C9000045C9000061C900009CC80000C8
:10614C0087C8000085C9000004000001044B5A698F
:10615C0042F010025A615A6922F008025A617047E3
:10616C0000ED00E0EFF30880EFF3098101B5724612
:10617C00FFF70AFF01BD00BF0A4880F30888102012
:10618C0080F3118808484FF40061401880F30988A7
:10619C00EFF314800221084380F31488BFF36F8F50
:1061AC0000F0BCF8601B0020200E0020084B9B6800
:1061BC0083420BD1EFF3058343B1064B5A6842F08F
:1061CC0080525A605A6A22F400425A6201F024BD8D
:1061DC00C40A002000ED00E020498A6882F8B1E092
:1061EC004FF030001044EFF3098C80E8F01F1EF0E4
:1061FC00100F03D102F1700080EC108A102080F394
:10620C001288BFF36F8F164F4FF000668A698A6051
:10621C003E60506E134C206092F9B1E0906E0023FA
:10622C00936680F311881EF0100F03D00023E1EE6B
:10623C00103A03E002F1700090EC108AEFF3148333
:10624C0023F0040383F31488BFF36F8F02F1300043
:10625C0090E8F01F8CF3098870470000C40A0020F6
:10626C0004ED00E0A80900201EF0040F0CBFEFF3B2
:10627C000880EFF30980816911F8021C0229FFD014
:10628C0001B5724604F033FB01BD00BF40B20028DB
:10629C0007DB044A4109012300F01F00834042F848
:1062AC002130704700E100E040B200280CDB4309CC
:1062BC00064900F01F0020330122824041F82320C0
:1062CC00BFF34F8FBFF36F8F704700BF00E100E04B
:1062DC0040B20028A8BF00F1604001F10101B8BF35
:1062EC00064B4FEA0111ACBF00F5614000F00F0006
:1062FC00C9B2B4BF195480F80013704714ED00E014
:10630C00044B054A23F07F039360BFF34F8FBFF319
:10631C006F8F70470040000000ED00E008B5FFF7FC
:10632C00EFFF104BD3F8882022F47002C3F88820BA
:10633C00D3F8882042F4A002C3F888204FF04042E2
:10634C00C3F83422BFF34F8FBFF36F8F0023E1EEFE
:10635C00103AFFF709FCFFF713FC00F079F801F095
:10636C0023F900BF00ED00E04FF47D41C0F8B01000
:10637C0042F8203C009B42F81C3C0A49019B42F825
:10638C00183C029B42F8143C21F001014FF0807341
:10639C0042F8043C42F8081C0023203A026583664C
:1063AC00704700BF59500000104B9B6883421AD1B4
:1063BC00EFF30580B8B9EFF31181102282F3128844
:1063CC00BFF36F8F1A7B22F002021A73EFF3148360
:1063DC0023F0040383F31488BFF36F8F81F31188C8
:1063EC00BFF36F8F70476FF015007047C40A002021
:1063FC0000B50E4615460023E1EE103AEFF3148378
:10640C0023F0040383F31488BFF36F8FBFF36F8FF4
:10641C000A4B426E98600A4B1A602C4686F3098828
:10642C000020044B98472046002100220023024CF8
:10643C002047000025A9000059500000C40A002084
:10644C00A8090020014B10221A61704700ED00E0F2
:10645C00044800231021C2180133202B82F80013AA
:10646C00F9D1704700E100E008B5EFF30583064A67
:10647C00103B02EBC30152F8330049688847BDE872
:10648C000840FFF74DBC00BFB0B70000F0B587B0B7
:10649C0007460E4614460021102268461D4604F09D
:1064AC007CFE02238DF802302A46054B01932146CF
:1064BC006846CDE9047601F089FF07B0F0BD00BF56
:1064CC004DA9000008B5024B1B689847002008BD79
:1064DC00AC090020034B044A1860937843F0020384
:1064EC0093707047AC0900201000002008B50649D5
:1064FC00064821F00701C1F1005202F5004203F0F9
:10650C0070FD002008BD00BF671B0020B0090020F3
:10651C0010B5036944681A6959791868904794F959
:10652C000C30054AC03352F823106FF3104142F877
:10653C00231052F8233010BD0060004010B5074BFB
:10654C0001220446C3F86C231B2000220C21FFF708
:10655C00BFFE2046BDE8104004F0FDB900600040CD
:10656C0010B5074B02220446C3F870231C200022EE
:10657C000C21FFF7ADFE2046BDE8104004F0EBB94E
:10658C000060004068B161B10A68074B496853F874
:10659C002200012203688A4023EA020303600020E0
:1065AC0070476FF01500704730BD000060B159B1F5
:1065BC000A68074B496853F82220012310688B4066
:1065CC0003431360002070476FF01500704700BF45
:1065DC0030BD000008B5074804F07FFC38B1064810
:1065EC00FFF778FF0448FEF72BFD002008BD6FF085
:1065FC001200FBE778B70000096600000A2838B5DE
:10660C00074D044604D1AB680D215B6828469847BA
:10661C00AB6803485B68E1B29847204638BD00BFC1
:10662C0078B700002DE9F04302F44033B3F5403F56
:10663C00476889B080460E46144600F0878012F0F9
:10664C00200540F083803B7DFF2B17D06FF01200AC
:10665C0007F11303C01B4FF0010C5A78591C002A88
:10666C006CD1012000F030FC3D4A92F8BB3423EA97
:10667C00050382F8BB34012000F0FAFB14F400355A
:10668C0018BFC4F3C0453B7918BF45F0040560073B
:10669C0048BF45F0400503F00F03E10643EA06133B
:1066AC0048BF45F0100562028DF8043024D5D8F8A7
:1066BC000400314604F028FA8146002849D00068CD
:1066CC0004F00BFC002847D03B798DF8103004F017
:1066DC00C063059304F0B0730693224BCDF80C8085
:1066EC008DF811600793D9F8000003A904F047F95D
:1066FC00002820DB45F48045A30212D5D8F804000D
:10670C00314604F001FA804618B3006804F0E5FB4A
:10671C0010B33979D8F80000324604F077F925F433
:10672C008045A40004F440642C430022012101A8FC
:10673C00029400F0C3F809B0BDE8F083B24202BF86
:10674C001B180CFA03F31D430B4686E76FF085000C
:10675C00F1E76FF01500EEE76FF00A00EBE700BF12
:10676C0000E0014047AB000030B40F2944681AD850
:10677C0024790F4D01EB04141A4355F8245015F0ED
:10678C00040F14BF4FF400344FF4803415F0400F55
:10679C0018BF44F00404ED0648BF44F01004224333
:1067AC0030BCFFF73FBF6FF0150030BC704700BF27
:1067BC00000804402DE9F0474668336800AF0546F1
:1067CC00D3B96C4688B001686A463748C2E90501FE
:1067DC004FF400719183354942F8101F34484FF43F
:1067EC00E251FEF701FFA5466FF01204336813BBAC
:1067FC002046BD46BDE8F0870024F7E72D4A034646
:10680C0001212B4803F0B3FFF2E76C4688B02968EE
:10681C006A462948C2E905014FF400719183234966
:10682C0042F8101F22484FF4E251FEF7DDFEA54658
:10683C006FF01204DCE7002CFAD1A1464FF00108EE
:10684C00746854F8390004EBC90A04F046FB03469B
:10685C000028DAD054F839009AF80410BAF8063047
:10686C00D0F810C0D0F808A0DCF80040DA0754BF0C
:10687C0043F4B01383F4D01323F4801208FA01FE0E
:10688C00DB074CBF44EA0E0424EA0E04CCF80040AB
:10689C00DAF80030984704460028AFD1336809F184
:1068AC0001094B45CCD8A3E757CA000003000001EF
:1068BC0068B9000082CA0000A1CA000070B5EFF3ED
:1068CC001085012383F31088174B1C681CB9174AD9
:1068DC00D4704024D4701A6801321A6085F3108881
:1068EC00134E00EBC101884213D1EFF3108101224A
:1068FC0082F310881A6812B11A68013A1A601A6881
:10690C001AB90A4BDA708022DA7081F310880020F1
:10691C0070BD0478456804F00F02120102EB1412EA
:10692C00083046F82250DEE760090020000D0440D4
:10693C0000080440036993F94730002B08DB01225F
:10694C00590903F01F0302FA03F3024A42F82130FB
:10695C00704700BF00E100E0036993F94730002B5A
:10696C000DDB5A09012103F01F03994002F12003AA
:10697C00034A42F82310BFF34F8FBFF36F8F70475A
:10698C0000E100E010B50469636F0BB1A16F98478B
:10699C0094F94130044AC03352F823106FF310417C
:1069AC0042F8231010BD00BF0060004010B5046910
:1069BC00636F5BB1A16F984794F94330044AC033BD
:1069CC0052F823106FF3104142F8231010BD00BF92
:1069DC000060004010B50469636F5BB1A16F98470C
:1069EC0094F94530044AC03352F823106FF3104128
:1069FC0042F8231010BD00BF0060004010B50469C0
:106A0C00636F5BB1A16F984794F94730044AC03368
:106A1C0052F823106FF3104142F8231010BD00BF41
:106A2C000060004070B504460E461546006841F201
:106A3C008832012100F0D4FB002832D12379042BB9
:106A4C002FD8DFE803F00403040C0C000323B3700D
:106A5C006379032B25D8DFE803F0021702056FF0EA
:106A6C00850070BD0123F370A379042B19D801A202
:106A7C0052F823F06B6A00006B6A0000B96A0000E0
:106A8C00996A0000B56A00000023ECE702237370DA
:106A9C0008232B72E279012A0BD009D9023A012A78
:106AAC00DDD96FF01500DCE70023F0E70323EEE7F8
:106ABC00002300202B73A873D3E700BF2F4BA32216
:106ACC002DE9F341C3F80023A422C3F80423A52223
:106ADC00C3F80823A622C3F80C2300220446012184
:106AEC001046FFF7F5FB012108460022FFF7F0FBEB
:106AFC00002201210220FFF7EBFB002201210320E1
:106B0C00FFF7E6FB0020FFF7C1FB0120FFF7BEFB00
:106B1C000220FFF7BBFB63682569186801AA0021F6
:106B2C0004F044F8041E22DB019B0022197918683A
:106B3C00FFF7C4FE041E1ADB05F13C0605F15C07E9
:106B4C0005F1700843463A46314605F13400FFF72B
:106B5C0069FF044658B9C5F86080AF653146281DF9
:106B6C0000F02AFA38B995F94700FFF79DFB20464B
:106B7C0002B0BDE8F0816FF00404F8E7006000405B
:106B8C0010B54FF0E0230F499C691A6908689B699E
:106B9C000D4902F4803234B993B903464AB90A68F4
:106BAC001044C01A10BD002B08BF03460AB9A342FB
:106BBC00F5D90A6802440A604FF0E0221269EEE748
:106BCC000446F3E7400A0020340A00200A4B102246
:106BDC0083F82320094B4FF496521A60084B00207F
:106BEC0018604FF0E02341F2BF225A6198611A6994
:106BFC0042F007021A61704700ED00E0400A0020E5
:106C0C00340A0020684620F007018D4601B5FFF7D5
:106C1C00B7FF0D4B0D4A186811680844106000222C
:106C2C001A600B4A13684FF49651C01AB0FBF1F07E
:106C3C0001FB0033136001F0D1F9FFF771F8BDE8E7
:106C4C0001408546704700BF340A00203C0A0020F2
:106C5C00380A00202DE9F041334E91B1421C0AD183
:106C6C004FF0E022136923F0010313614FF07F43CF
:106C7C003360BDE8F0813468012807DC4FF0000870
:106C8C000BE0431C3468F7D140F6A65040F6A753EE
:106C9C009842A8BF184600F1FF38EFF31185102376
:106CAC0083F31288BFF36F8FFFF76AFF4FF0E02377
:106CBC00DFF884C09F69DCF8003018441B4B0022BD
:106CCC001A601B4B1A68831A2AD44FF4965E0EFB7B
:106CDC00083303F595531F33B3FBFEF1131A0EFB68
:106CEC000133B3F5806F134A38BF4FF4806393427E
:106CFC0028BF13464FF0E022336091698F42A7EB17
:106D0C00010703F1FF3338BF3F19536138440023A7
:106D1C009361CCF8000085F31188BFF36F8FA8E75F
:106D2C004FF48063E6E700BF400A0020340A0020DD
:106D3C00380A002080E8FF003C0A002038B5EFF349
:106D4C001185102383F31288BFF36F8F084B1C68D7
:106D5C00084B1B68E41AFFF713FF85F31188BFF388
:106D6C006F8F4FF496532044B0FBF3F038BD00BF47
:106D7C003C0A0020380A00200B4B93F8A0208242DA
:106D8C0011D093F836201AB993F83C20D207FBD5D2
:106D9C00054B93F8A020D106FBD483F8A00093F800
:106DAC00A020D206FBD4704700E00140064B93F8BC
:106DBC0026101A6A054B53F82130C2F30262D340F5
:106DCC00034A1360704700BF00E00140080B00202D
:106DDC006409002010B51D4C1D491E4A4AF203538C
:106DEC00A4F8FE331C4B0020A3F800011B4BC3E995
:106DFC0000124FF40042C3E902201861FFF7D6FFDE
:106E0C00012384F88034FFF7B7FF84F8360094F838
:106E1C003C30DB07FBD5124B012084F83100236298
:106E2C00002384F82630FFF7C1FF4FF42543A4F864
:106E3C00FE33094BA3F80401B3F8042192B2002AE3
:106E4C00FAD10122A3F8002110BD00BF00E00140DF
:106E5C00006CDC0200127A0000C00140080B00201C
:106E6C0000010110014B53F820007047080B002063
:106E7C0010B5EFF31081012383F310880F4A32F819
:106E8C0010309BB22BB132F81030013B9BB222F880
:106E9C00103032F810309BB263B9094A094CB2F881
:106EAC00FE3334F810009BB243F4254323EA00036D
:106EBC00A2F8FE3381F3108810BD00BFF40A002045
:106ECC0000E0014098C2000030B5EFF310840123BC
:106EDC0083F310880D4A32F810309BB263B90C4919
:106EEC000C4DB1F8FE3335F810509BB22B4343F4E4
:106EFC0025439BB2A1F8FE3332F8103001339BB21C
:106F0C0022F8103084F3108830BD00BFF40A002042
:106F1C0000E0014098C20000C030054B53F820201F
:106F2C006FF3104243F8202053F82030704700BF15
:106F3C00006000404309064900F01F002033012285
:106F4C00824041F82320BFF34F8FBFF36F8F704700
:106F5C0000E100E038B5036A002545609D70C36907
:106F6C00044693F90500FFF7E5FFE36993F90B007D
:106F7C00FFF7E0FFE36993F90700FFF7DBFFE36935
:106F8C0093F90900FFF7D6FFEFF31081012383F388
:106F9C001088E369074A1C78D2F800014FF00043CF
:106FAC00E3400343C2F80031D2F8003181F310887A
:106FBC00284638BD006F04402DE9F8430B78DFF804
:106FCC001C8203F1007303F5605300265B0106700D
:106FDC0003620B78C161012707FA03F313F0030373
:106FEC0018BF3B461B0103704B6943628B69C0E9B8
:106FFC000A63837867F3010383704B78B342837819
:10700C0014BF3A46022262F30103837091F90B908C
:10701C00044648460D46FFF78DFF4846FFF77CFFB8
:10702C0048F8294095F905904846FFF783FF4846F4
:10703C00FFF772FF48F8294095F907904846FFF78B
:10704C0079FF4846FFF768FF48F8294095F9099001
:10705C004846FFF76FFF4846FFF75EFF48F82940A8
:10706C00EFF3108087F310885A4B95F800C0D3F8D3
:10707C0000214FF0004121FA0CF122EA0102C3F881
:10708C000021D3F8003180F31088236A9E70236AA4
:10709C001E71236A5E72236A9E72236ADE72236AF1
:1070AC005E832B789F4040F207231F421EBF236A4A
:1070BC004022DA74236A06221A772278AAB1E3698D
:1070CC00216ADB691B7A013A13401B02120392B24C
:1070DC0003F47063134343F0010243F007038B8204
:1070EC00216A8B8A9BB29A42FBD1EB78AA78DB009F
:1070FC0043EA02136A78032A51D143F04003F22287
:10710C00216ADBB20B70236AD2B29A71EA69216AE6
:10711C00137B5B0003F002034B7353789178DB0114
:10712C00490101F02001DBB20B43216A00200872F7
:10713C00117802390129216A36D8FF20487012785B
:10714C00022A08BF43F01003226ADBB2D371002677
:10715C00C4E90366C4E90566E369EF6993F90500C0
:10716C003D7803F08EFEE36993F90B0003F089FE82
:10717C00E36993F9070003F084FEE36993F90900CE
:10718C0003F07FFE05F00305236A45F070059D7042
:10719C007B892381104B63603046BDE8F883002A5D
:1071AC000CBFE222F222ABE7DBB2CB715268236A4E
:1071BC00917859705078197860F301011970D17871
:1071CC009974D979127801F0A30102F05C020A4398
:1071DC00DA71BCE7006F044055494353440A002060
:1071EC002DE9F04F1C46FF23A37023786FF3820325
:1071FC008BB023708023E3704D4B0191904605902A
:10720C004C4A1B6A1268C3F302618A40C3F302330F
:10721C0022FA03F30093484B984548DC474D009BFA
:10722C00A3FB05230893009B07921B0A4FF0000A4F
:10723C000493D3465FFA8AF300260693404B9B5D7A
:10724C00C3F34002C3F38003039302921346039AE1
:10725C001343069A934220D13A4B33F81690059B70
:10726C0003FB09F9009BB3FBF9F7B7F5807F14D842
:10727C0007FB09F28FB1D317DDE907010992FDF77E
:10728C00D7F8019B099A013FABB9A0F5C330A038E0
:10729C000028B8BF4042854242DC01360D2ECDD1CC
:1072AC00BAF1000F40D145454FF0010AC2DC002075
:1072BC000BB0BDE8F08F049BB2FBF3F10B06ECD5E1
:1072CC00C9B2484348BFFF300312A3F5C333A03BF8
:1072DC00002BB8BF5B429D4219DD8B461D46184BF7
:1072EC00A770995D2378C1F3000060F386130298B0
:1072FC0060F30413039860F3C30323706378C1F342
:10730C00C10161F301036370019B002BC5D023788D
:10731C0084F803B043F004032370A2EB0902A9E73D
:10732C00DDF804B00546DAE74545C0DD0320BFE7CC
:10733C0000E00140640900209F860100A086010046
:10734C00D5CA0000A2C2000010B50446FEF77CF8B6
:10735C000348044A012103F001FA204603F0C8FD5A
:10736C0088B90000E2CA00002DE9F843044600AFDA
:10737C000D46EFF31188102383F31288BFF36F8F40
:10738C000428294A98BF294B9668117C94BF53F85E
:10739C002030274BE9468AB06A462648C2E90731B5
:1073AC0040F201339384244BC2E9050442F8103FA8
:1073BC00224800234FF43151FEF716F9CD4645B162
:1073CC00EB69C3F3080323B11D4A1C48012103F0E8
:1073DC00C5F92EB1304603F0B3FD08B1037803B9FB
:1073EC001848E9468AB06A46174BD061C2E905369F
:1073FC0040F201331384154B42F8103F00230F4821
:10740C004FF41151FEF7F0F82946CD462046FFF710
:10741C009BFF88F31188BFF36F8F3046FEF7C6FED3
:10742C00BD46BDE8F88300BFC40A0020F0BD0000D3
:10743C00F1CA000007CB00000500000188B900006C
:10744C002FCB0000FFCA000050CB0000040000014D
:10745C0038B50A4B53F82040013053F82050A54260
:10746C0000D838BD606830B1037EDB0701D403F06F
:10747C001CFD0834F3E723689847FAE704BE0000C4
:10748C0070B52A4B2A4C2B4D012286B003201A7062
:10749C00FFF7DEFF00F0CEFE0420FFF7D9FF2646F3
:1074AC00AE4204F1300410D300F0BCFA204C224E52
:1074BC00AC4226D300F0CAFAFDF77CF91F4A137BC5
:1074CC0023F00103137306B070BD54F80C3C059304
:1074DC0054F8103C049354F8143C039354F8183C9F
:1074EC00029354F81C3C019354F8203C009354E94B
:1074FC000A2354E90C0100F015F954F8303C5E6590
:10750C00CDE7D4E90A23B3F1FF3F08BFB2F1FF3F47
:10751C0005D052EA0301206803D100F053FB30344C
:10752C00C6E73146183000F0C9FCF8E7010B002023
:10753C00B0B80000B0B800003FB00000D007002089
:10754C0070B5144E144D1549B82386B003FB006674
:10755C0001220023CDE904230F22CDE9023201934D
:10756C00182303FB00554FF4A072044602FB0011D4
:10757C000B4B0095304600F0D5F8737B2C7423F040
:10758C0004037373074BEE60013403EBC4236B608D
:10759C0006B070BD18070020C40A00202016002079
:1075AC000DAF0000200E0020BFB50020FFF750FFEC
:1075BC00274B83F30888274C274F636943F40073E8
:1075CC0063610025F02384F82230E5772576657613
:1075DC00A57684F82050636A43F4E0236362FEF7D7
:1075EC00B5FDFEF72FFF4FF0FF33A362E362FDF70B
:1075FC008DFE1A481A4C00F0F9F8FDF741FD0120F8
:10760C00FFF726FF0220FFF723FF00F053FA154B7C
:10761C0015499C61154B05930123CDE903534FF498
:10762C0080623B46CDE901550095204600F07AF882
:10763C00627B064622F004022046627303F0BCFC17
:10764C002846FFF77DFF3A4631462046FEF7D0FE2E
:10765C002016002000ED00E08D740000880800204A
:10766C00D0070020C40A002060170020B2CB000015
:10767C0070B5EFF31186102383F31288BFF36F8F6D
:10768C000468A0421AD0CCB1D4E9003213605A601D
:10769C00637B002523F002036373C4E90055A560E6
:1076AC0004F1180003F015FD2046E56603F084FC98
:1076BC0031460848BDE8704000F08EB9D0E902327E
:1076CC009A4218BF0133836086F31188BFF36F8F22
:1076DC0070BD00BF020B002013B5EFF31181102415
:1076EC0084F31288BFF36F8F846844B1013C8460CB
:1076FC0081F31188BFF36F8F002002B010BD52EAE6
:10770C00030406D181F31188BFF36F8F6FF00F0064
:10771C00F3E7CDE900230246014800F03BF9ECE722
:10772C00020B00202DE9FF41984600F15803D51DAE
:10773C00C0E916330E9B037325F0070504230026BE
:10774C0043730D440D9B83730F46C0E906662946AF
:10775C008660C6730446FEF7C3FA0C9B029307308F
:10776C000B9B019320F007000A9B00932D1A4346B4
:10777C002A4639462046FEF7F7FD054B66659B68A1
:10778C0003B11B6E2366284604B0BDE8F08100BF30
:10779C00C40A0020F0B587B000250595109D04950E
:1077AC000F9D03950E9D0295DDE912760D9D0195B9
:1077BC000C9D00950446FFF7B5FFB6F1FF3F08BFDF
:1077CC00B7F1FF3F05D056EA070305D1204600F07C
:1077DC00F9F9204607B0F0BD3A46334604F11800DB
:1077EC00014900F06BFBF4E73FB0000040F20113DD
:1077FC00838100230366014B98607047C40A002004
:10780C00094A93686FF00A01D966084998664B6873
:10781C0043F080534B60002383F31188BFF36F8FC9
:10782C009368D86E704700BFC40A002000ED00E0DA
:10783C0070B590F90D20437B002A36DBD90634D184
:10784C001B4C63F07F032246437352F81C3F216AA2
:10785C00934207D1C0E900210860206211E09942EF
:10786C00F8D01B68002BF5D090F90E5093F90E60F0
:10787C00B542F4D0AE42F2DD5968C0E9003108607F
:10788C005860E569954200D005B9E568A3685A7B54
:10789C00D20604D1DA897F2A01D9AA6932B1AB4266
:1078AC0002D0284600F086FAA56170BDA361FCE702
:1078BC00C40A002038B590F90D20437B002A0146FC
:1078CC0004DA03F07F03437303F03CFB0D4D2A46AF
:1078DC00AB6852F81C4F944200D004B9EC688B4250
:1078EC0007D05A7BD20604D1DA897F2A01D9A26942
:1078FC002AB1A34202D0204600F05CFA2346AB61C9
:10790C0038BD00BFC40A0020B3F1FF3F08BFB2F17D
:10791C00FF3F03D00249183000F0D0BA704700BFC7
:10792C003FB0000038B5194CA168206A0B68814241
:10793C0014BF1A46002249680B605960A368216A7B
:10794C002AB9134AC3E900210B6023620CE093F9B6
:10795C000E0092F90E50A84214D0854212DD5168E7
:10796C00C3E900210B605360E569094B9D4200D0CF
:10797C0005B9E568A3689D4202D0284600F01AFAC2
:10798C00A56138BD9142DCD01268D9E7C40A002049
:10799C00E00A0020F8B50E4B0C4611460D4A9868CB
:1079AC001060DDE90667EFF31182102282F3128872
:1079BC00BFF36F8F9D68284603F0D6FA28463246EF
:1079CC003B46FFF7A1FF2046BDE8F840FFF718BF84
:1079DC00C40A0020E80A002049B9EFF3058030B949
:1079EC00054B9A699B689A4201D0FFF709BF81F356
:1079FC001188BFF36F8F7047C40A0020034648B943
:107A0C00EFF3058232B9064A91699268914201D02E
:107A1C00FFF7F6BE83F31188BFF36F8F704700BF7B
:107A2C00C40A0020EFF31181102383F31288BFF3F3
:107A3C006F8F054B9A68D37B013BD37381F311880D
:107A4C00BFF36F8F704700BFC40A002070B5EFF30F
:107A5C001186102383F31288BFF36F8F144DAB681C
:107A6C00DA7B0132DA732A4652F81C4F944200D06A
:107A7C0004B9EC685A7BD20604D1DA897F2A01D981
:107A8C00A2692AB1A34202D0204600F093F9234602
:107A9C00AB6186F31188BFF36F8FEFF31180102366
:107AAC0083F31288BFF36F8FBDE87040FFF7A6BF5A
:107ABC00C40A0020024B03F11C02C3E907227047E1
:107ACC00C40A002070B5EFF31186102383F31288DB
:107ADC00BFF36F8F1B4CA168206A0B68814214BFE7
:107AEC001A46002249680B605960A368216A2AB9BA
:107AFC00154AC3E900210B6023620CE093F90E00D8
:107B0C0092F90E50A84218D0854216DD5168C3E98F
:107B1C0000210B605360E5690B4B9D4200D005B909
:107B2C00E568A3689D4202D0284600F043F9A561A0
:107B3C003046BDE87040FFF763BE8A42D8D0126869
:107B4C00D5E700BFC40A0020E00A0020F8B550EACF
:107B5C00010306460C4603D1FFF7B4FF0020F8BD25
:107B6C00EFF31187102383F31288BFF36F8F124D3D
:107B7C00124BA8681860FFF79DFEA86810492346B1
:107B8C003246183000F09AF9AA68537B43F004038C
:107B9C00537304463846FFF733FEAB68D3E90A2328
:107BAC00B3F1004F08BF002AD8D103F0BAFA201A5B
:107BBC0020EAE070D3E700BFC40A0020E80A0020E6
:107BCC003FB0000038B50446EFF31185102383F362
:107BDC001288BFF36F8F437B5B070FD5183003F010
:107BEC0078FA637B23F0040320466373FFF720FECF
:107BFC0029460548BDE83840FFF7EEBE85F31188ED
:107C0C00BFF36F8F38BD00BF020B0020014B98688B
:107C1C00704700BFC40A00202DE9F8430446077BD7
:107C2C00EFF31185102383F31288BFF36F8F437B1F
:107C3C00190705D585F31188BFF36F8FBDE8F8835D
:107C4C00D90943F008025DD14273A36813B12046F1
:107C5C0003F080F904F1180003F03BFAA66D04F16F
:107C6C005808B04511D04FF0000976B1304603F0FA
:107C7C0071F906F1180003F02CFAC6F86C90304636
:107C8C00FFF7D6FDA66DB045EFD1DFF8C880D8F868
:107C9C0008309C423ED1EFF30589B9F1000918BFB9
:107CAC004FF00109D8F81C60284A964200D00EB952
:107CBC00D8F80C60B34202D0304600F07BF8204676
:107CCC00C8F8186002F026FEB9F1000F02D0204867
:107CDC00FFF78CFDD8F808309C4231D1EFF30583C7
:107CEC0073BB227BD20718D42846FFF789FDFB070C
:107CFC00A4D5002383F31188BFF36F8F0423184698
:107D0C0002DF9BE703F07F0343F00803437303F0A8
:107D1C0019F99AE74FF00009C4E785F31188BFF30E
:107D2C006F8F83F31188BFF36F8F0423184602DF24
:107D3C00EFF31180102383F31288BFF36F8FD4E716
:107D4C0085F31188BFF36F8FD1E700BFE00A0020E5
:107D5C0088080020C40A0020044BC01A044BC01031
:107D6C005843044B01221A54704700BF40090020AD
:107D7C00ABAAAAAA020B0020C3897F2B12D80A4BEC
:107D8C001B6863B1094B90F90E201B689A4209DB02
:107D9C00437BDB0606D1064BC31A18BF012303F045
:107DAC00010070470023FAE7A8010020EC0A00202C
:107DBC001807002070B50E4B0E4C1E7C06EB4603CC
:107DCC0004EBC3040546204603F083F90A4B00225A
:107DDC0028469A55FFF7D0FF48B1084B08491A6856
:107DEC00013A2046D317BDE8704000F067B870BD6B
:107DFC00C40A002040090020020B0020A80100202A
:107E0C00657D000038B5EFF31185102383F31288DC
:107E1C00BFF36F8F0F4B104A9C681068A04206D1BD
:107E2C00FFF7C8FF85F31188BFF36F8F38BD0021B2
:107E3C001B7C1160094AD35C002BF3D02046FFF762
:107E4C009BFF0028EED0637BDB0601D1FFF76AFDB8
:107E5C002046E5E7C40A0020E80A0020020B0020B7
:107E6C00024B1868984208BF00207047AC010020F4
:107E7C00034B1B680BB9FEF761BF0020704700BFB6
:107E8C00F00A002030B570B10B4B5B6898420AD0F9
:107E9C00036843B1D3E90421D0E90445121941EB3D
:107EAC000501C3E90421D0E9003213605A600023B4
:107EBC00C0E9003330BD00BFAC010020B3F1FF3F7F
:107ECC0008BFB2F1FF3F2DE9F84F0446994615461D
:107EDC001F467AD08160EFF31188102383F3128848
:107EEC00BFF36F8FB9F1000FDFF8E8A020DBFFF7CD
:107EFC00BFFFDAE90027013549F100092D1849EBDC
:107F0C00E073C4E90453AD18064643EB07074FF082
:107F1C000109FFF7A5FFDFF8C0E0DEF804A0034677
:107F2C00EBB9C4E900EACAF80040CEF8044028E0F6
:107F3C00DAE900126FF001035B1A4FF0FF3161EBCD
:107F4C0002025B1B62EB0902012B72F10001BCBF48
:107F5C0001230022C0E904324FF00009D9E7D3E92C
:107F6C00041CD4E904208A4270EB0C0B24DA891A25
:107F7C005A686CEB0000C3E90410C4E900321460C9
:107F8C005C60FFF76DFF84420ED1114B1B685BB92F
:107F9C00B9F1000F02D1FFF76BFF0646304603F034
:107FAC0081F80021FEF756FE88F31188BFF36F8F1E
:107FBC0028463946BDE8F88F521A60EB0C009A45FA
:107FCC00C4E90420ADD01B68AAE700252F46EFE7D3
:107FDC00F00A002058090020AC0100202DE9F047E0
:107FEC00EFF31185102383F31288BFF36F8F264FA5
:107FFC00264E3860FFF734FF4FF000084FF00009B1
:10800C003B68D6E9001E4FEAE37C50B1D0E904424C
:10801C00A3427CEB020A1ADAE41A62EB0C02C0E906
:10802C0004425B184FF000044EEB0C022046C6E9EC
:10803C0000323C6003F036F82146FEF70BFE85F368
:10804C001188BFF36F8FBDE8F047FFF7DBBE6118F7
:10805C004EEBE473C0E90489C6E90013FFF712FF85
:10806C0085F31188BFF36F8F83689847EFF3118501
:10807C00102383F31288BFF36F8F3B681B1B3B608D
:10808C00FFF7EEFEBCE700BFF00A00205809002005
:10809C0010B5EFF31184102383F31288BFF36F8FA5
:1080AC00FFF7E6FE054A0346D2E90001181841EB3A
:1080BC00E37184F31188BFF36F8F10BD5809002052
:1080CC00F8B50646EFF31187102383F31288BFF33C
:1080DC006F8F026822B187F31188BFF36F8FF8BDE1
:1080EC00D0E90A54691C44F10003022973F100031E
:1080FC0034D3013D44F1FF34002CBCBF15462C4653
:10810C0003F013F8013041F10001401944EB010177
:10811C00012871F1000149DB03F007F8013041F14E
:10812C0000016FF00203401944EB010183426FF030
:10813C0000438B413FDB02F0F8FF013041F10001BD
:10814C006FF00102401944EB01044FF0FF33121A97
:10815C0063EB04031A493046FFF7B0FE336B01336F
:10816C003363336A6BB187F31188BFF36F8F336A54
:10817C0030469847EFF31187102383F31288BFF32F
:10818C006F8F334653F8184F9C42A4D0002CA2D0CA
:10819C00204602F020FF0023E36687F31188BFF32B
:1081AC006F8F2046BDE8F84002F006BF6FF0010269
:1081BC004FF0FF33CEE700224FF00043CAE700BF79
:1081CC00CD8000002DE9F04105461C4690461F4627
:1081DC00EFF31186102383F31288BFF36F8FB4F182
:1081EC00FF3F08BFB2F1FF3F05D186F31188BFF303
:1081FC006F8FBDE8F081002C09DB012A74F10003BC
:10820C00BCBF0122002412F1FF3844F1FF3728468D
:10821C0002F05FFFDDE90623C5E90A2300232B6387
:10822C0042463B4628460249FFF748FEDDE700BFC1
:10823C00CD800000014801F069BF00BFBACB00003F
:10824C000CB430B58BB004460D462022002102A898
:10825C0002F0A3FF02238DF80A30002D0C4B039380
:10826C00069412DB01D06B1E1C440FAA0E990794C6
:10827C0002A8019200F0AAF815B1069B00221A7010
:10828C000BB0BDE8304002B070470024EDE700BFF2
:10829C003BB500002DE9F04101260746B24201DC56
:1082AC00BDE8F0813B461F4613F8014B002CF7D07C
:1082BC00252CF8D11C78252C07F10207F2D00023CD
:1082CC00DFF804819C461D461F2D18D8A4F1200E02
:1082DC00BEF1100F09D9A4F1300EBEF1090F1ED852
:1082EC000A2404FB03E3202504E028FA0EFE1EF00A
:1082FC00010F06D017F8014B002CE5D128E07F2D9B
:10830C001CD8A4F1300EBEF1090FE9D9242C10D1E0
:10831C00BCF1000F46D0B34246D00023EAE724F06C
:10832C00040EBEF12A0FF8D06C2C09D145F0800553
:10833C00E0E724F0040EBEF12A0FEED06C2C22D014
:10834C006C2C1BD8682C23D06A2C28D04C2C26D013
:10835C00BCF1000FA4D0B445A0D144F02007A7F184
:10836C00650CBCF1020F0B6801D9612F1ED10733CC
:10837C0023F0070308330B6001368EE7742CB9D059
:10838C007A2CB7D0E4E72C0648BF45F40075CDE74E
:10839C00EC0548BF45F4007545F48075AAE745F433
:1083AC002075A7E79C46B8E76324D6E7692C02D072
:1083BC0007D8632C03D02F0601D5AC05D7D40433D2
:1083CC00D9E7732CF6E700BF892801002DE9F04F9F
:1083DC0093B043680193837880469807CDE90612E1
:1083EC0017D50B920B4600251F78A7B1252F16D059
:1083FC0001330593019B414638469847002805F107
:10840C00010580F2358498F8023043F0040388F8B3
:10841C0002304FF0FF35284613B0BDE8F08F5F787F
:10842C009A1C252F0592E5D000242646A246A34689
:10843C00BBF11F0F32D8A7F12003102B0AD8DFE8AD
:10844C0003F02409092A0909091B0909092209272A
:10845C0009091900A7F13003092B2DD92A2F39D17D
:10846C0054B90B9B1BF0400F53F8042B0B9329D0E2
:10847C00164601E04BF0010B059B13F8017B0593AD
:10848C00002FD5D15BE04BF0020B4BF0040BF3E764
:10849C004BF0080BF0E74BF0100BEDE7BBF17F0F47
:1084AC003FD8A7F13003092BD8D81BF0400F03D0CD
:1084BC000A2202FB0636DFE70A2202FB0A3A4BF0DD
:1084CC00200BD9E7B2F1000AF9DACAF1000A4BF035
:1084DC00280BD1E72E2F05D11BF0400F9BD14BF071
:1084EC00400BC9E7242F1CD1002C00F04181079BC5
:1084FC000B931BF0400F0AD1524606980BA9FFF7BD
:10850C00C9FE0B9B1A1DD3F800A00B92B4E73246A0
:10851C0006980BA9FFF7BEFE0B9B1A1D1E680B924B
:10852C00AAE76C2F00F0118100F20881682F00F08F
:10853C0014816A2F00F019814C2F00F0168134B190
:10854C00079B06980B9322460BA9FFF7A3FE002E60
:10855C0047F02009B8BF2BF0400BA9F16503BCBF55
:10856C001FFA8BFB0026022B40F20781B9F1610F39
:10857C0040F06482FF4307F0200304930B9B073306
:10858C0023F007031BF0400F03F1080208BF4FF064
:10859C00FF3693ED000B0B923146049A0CA802F0B7
:1085AC002FFF0130C3B2B3424BF4C054029301DB32
:1085BC00029B5E1E01230C9F0393A3464FF0700990
:1085CC0007F10903122B0DD907F16303C62B40F2F7
:1085DC000D8107F2E73340F2CE72934294BF03232E
:1085EC00042303939DF8342002F00C0312F00102D3
:1085FC0040F017811BF0020F40F010811BF00404B7
:10860C0000F0F680002B40F00F8120231BF4405F1C
:10861C001FD1029A4832002E6A4408BF0126133A31
:10862C00029921B112F8011D302900F034811BF0A0
:10863C00100F029A18BF3246391DC0F23181B74271
:10864C0080F22E81BA424BF4005B40F32B817E1CEE
:10865C00961B1BF40052089200F0268127EAE7745F
:10866C00013403B10134002E00F02681721C144435
:10867C00A245CCBFAAEB040400241BF0090F04D1C3
:10868C002C44A54240F01D81002443B118464146BC
:10869C00019B9847002805F10105FFF6B4AE1BF4C9
:1086AC00006F13D0019B4146302098470028FFF6FD
:1086BC00AAAE049BC3F178004146019B00F0F80080
:1086CC009847002805F10205FFF69DAE1BF0080F38
:1086DC0005D12C44AC4240F0008125460024089B77
:1086EC00002B00F01A8127EAE77AA7EB0A077642FB
:1086FC00029BBB4284BF0CABFB180AF1FF3A88BF4C
:10870C005879019B98BF3020564505F10109414627
:10871C0000F3ED809847002807F10107FFF673AED0
:10872C00BAF1FF3F08D1019B41462E209847002803
:10873C00FFF669AE05F102094D46D9E7742F3FF4F7
:10874C009BAE7A2F3FF498AEF9E61BF0800F18BF62
:10875C004BF4007B4BF0800B8EE61BF4807F18BF34
:10876C004BF4007B4BF4807B86E64BF4207B83E65A
:10877C002646B3465446B2467EE6FF4307F0200336
:10878C0004930B9B073323F007031BF0400F03F1FB
:10879C00080208BF0626B9F1650F93ED000B0B928A
:1087AC0011D1711C0022C9B24BF4805B1346112904
:1087BC0028BF11210CA800F0FBFAC3B202930223CC
:1087CC000C9F0393FCE6B9F1660F05D14BF4005BEB
:1087DC00334601221121EAE7F1B201294FF00002E0
:1087EC0038BF012113464FF06509E0E70223F8E694
:1087FC00002B3FF40BAFBAF1030F3BDC9DF8343088
:10880C00A54E13F0080FA54B08BF1E463746B946B8
:10881C0017F8010BB0BBAE1BB1447BE033BB2B2371
:10882C00F4E62BBB2D23F1E62022BAF1040F13DD65
:10883C001BF0080FAAF104040FD12C44019B0292E7
:10884C00414620209847002805F10105FFF6DBADD5
:10885C00A542029AF2D19AB10024019B41461046DE
:10886C009847002805F10105C8DACCE52B22DCE796
:10887C002D22DAE71BF0080FAAF10304BED1DCE7C6
:10888C001446BBE7049BC01A4146019BC0B29847F3
:10889C000028BCDAB7E502990139C9B20291BFE6EA
:1088AC00561ED6E60026D4E61BF4006F039A0CBFC6
:1088BC00032405241444D4E61BF0100F18BF013414
:1088CC00D6E609934146019B202098470028099B36
:1088DC0005F10105BFF6D5AE95E5019B414630206B
:1088EC009847002805F10105BFF6F4AE8BE59847D3
:1088FC000028FFF688AD1BF0100F0BD0BAF1FF3F2C
:10890C0008D105F1020941462E20019B9847002809
:10891C00FFF679AD4D464C4432E29DF83500019B93
:10892C00414698470028FFF66EAD002E69DD019B8D
:10893C0041462E2098470028FFF665AD4FF0010AFE
:10894C00029B9A45BBBF0CAB534430205879019B1A
:10895C00414698470028D346FFF655AD0AF1010A67
:10896C005645EDDA02355D44049BA9EB0300414604
:10897C00019BC0B298470028FFF645AD002FB4BF4D
:10898C002D202B20019B4146B8BF7F4298470028E1
:10899C00FFF639AD039B042B41D14FF47A79B7FB29
:1089AC00F9F606F13000019B4146C0B29847002809
:1089BC0005F10305FFF627AD09FB16774FF06409A7
:1089CC00B7FBF9F606F13000019B4146C0B298475F
:1089DC00002805F10105FFF616AD09FB16774FF0DF
:1089EC000A09B7FBF9F606F13000019B4146C0B20B
:1089FC009847002805F10105FFF605AD09FB167730
:108A0C0015E01BF0100F01D10135ADE7019B41467C
:108A1C002E209847002805F10205A5DAF3E4039B04
:108A2C00032B05F10205C9D0039B012BD7D107F10C
:108A3C00300005F101094146C0B266E7A7F16303B6
:108A4C00122B00F2FE80DFE813F013005600FC003E
:108A5C00FC00FC00FC005600FC00FC00FC00FC00D0
:108A6C00FC001601F700FC00FC002B00FC00B80019
:108A7C000B9B1A1D1B680B928DF8303001240CAF28
:108A8C001BF0080F2DD03E19B946B1452BD1EF1B69
:108A9C00B944AAEB04043DE7F5CB000038C500004F
:108AAC000B9B1A1D0B921F68AB4B002F08BF1F4668
:108ABC001BF0400F14BF31464FF0FF31384602F027
:108ACC0074FB0446DCE7019B4146202098470028B4
:108ADC00FFF699AC013EB442F5D35544AD1BB246FA
:108AEC00D1E75646F7E719F8010B019B4146984729
:108AFC000028CADA87E41BF0800F0B9B35D01BF4DF
:108B0C00007F2DD0073323F00703D3E9000103F1D5
:108B1C0008020B922BF0100900291FFA89F936DA9A
:108B2C00404261EB410149F480690DF1300B0A239D
:108B3C005A4602F046FB19F0400FA0EB0B0B65D028
:108B4C0029F001025E4592B240F3B280002F00F092
:108B5C00A98019F010033446914626D002345CE00B
:108B6C001A1D18680B92C117D4E71A1D1BF4807FCD
:108B7C0019680B9201D10846F5E71BF4007F15BF6D
:108B8C0048B208B241F3C01141F3C031C2E750EA18
:108B9C000103CAD11BF0400FC7D0002EC5D12BF05A
:108BAC00110B1FFA8BF93446B34640F2064319EA0F
:108BBC0003031CBF013400232FE02BF0100B1FFA12
:108BCC008BFB0A231BF080040B9A57D01BF400710B
:108BDC001DBF073222F0070202F10801101D19BF58
:108BEC000B91D2E900010B90106850EA010252D1AE
:108BFC002BF016091BF0400F1FFA89F94FD0002EED
:108C0C004DD12BF0170B1FFA8BF9B34619F010034B
:108C1C0052D0002F4ED10BF1010419F0080F5ED188
:108C2C0019F0010F06D0A2456EDDAAEB040404EB8B
:108C3C000B06544622464DE04BF0100B10237827C0
:108C4C00C0E7B9F1780F04D1C7F1780343F01003F2
:108C5C00B8E7019B4146252098470028FFF6D3AB87
:108C6C00019B4146384698470028FFF6CCAB0235AD
:108C7C00059BFFF7B9BB08230027A3E7111D0B9138
:108C8C001BF480711068B0D01BF400711ABFC0B215
:108C9C00214680B2A9E72BF0060B1FFA8BF90DF1D8
:108CAC00300B45E729F011091FFA89F934467CE7A6
:108CBC009146ABE75C4651E75C4676E7CDE902238B
:108CCC004146019B202098470028FFF69CAB029A56
:108CDC00039B01329245F1DC2C1BA5181446F3B111
:108CEC00019B4146302098470028FFF68CAB6FB9AA
:108CFC000135A9462E44A6EB09035B4521DC5D46F4
:108D0C000CAE5DBBD944C4E65E4693E702354146E2
:108D1C003846019B98470028EBDAFFF774BB40F20A
:108D2C00064319EA030FE4D019F0020F14BF2B20ED
:108D3C00202019F4806F05F10105414618BF2D2044
:108D4C00E7E7019B414630209847002809F10109CB
:108D5C00D1DAFFF758BB00BFF9CB0000013D019BF6
:108D6C00705D414698470028CBDAFFF74CBB019B5E
:108D7C00414620209847002805F10105FFF643AB3A
:108D8C00631B002BF3DC73E71FB502AB0093074AA0
:108D9C004FF0CC3302F0FAFADDE90201C00840EAE8
:108DAC004170C90805B05DF804FB00BFCDCCCCCC3C
:108DBC002DE9F04F55EC104B9DB0CDE90C322A4605
:108DCC000B91C5F31303290DD20FC5F30A55079068
:108DDC008DED050A0A9275B922461A431BD1302330
:108DEC0043710A9B056043F0020303710127384667
:108DFC001DB0BDE8F08F40F2FF7295424DD1059A3F
:108E0C0013430A9B079A14BF43F0080343F004036F
:108E1C0013710027EBE7059AB24D02F0010209929B
:108E2C00059A4FEA830848EA9278970001229A46FD
:108E3C001646C5F1000B5846089200F017FAB5F12A
:108E4C00FF3FACBF8146A0F10109ABEB090B09EB6D
:108E5C0005035846069300F00FFA18A9A0F17D05FA
:108E6C00584600F029FA14AB089A0193A9EB0505B2
:108E7C0012AB0292009305982B4618AA514602F0A9
:108E8C00C8F9B9F1010F04460D4600F2D880099BD0
:108E9C00002B40F0CB8001276FE0059A02F0010215
:108EAC000992059A43F4801A4FEA8A081343A5F2F3
:108EBC00354548EA92784FEA82074BD140F2FE736F
:108ECC0019420CBF01260026002D3246B1DB284684
:108EDC0000F0C6F90346032DC8BF013B18460693A4
:108EEC0000F0CAF9069B7C305D1B054418A9184696
:108EFC0000F056FA14AB019312AB0093059802964E
:108F0C002B4618AA514602F084F9069B152B0446F1
:108F1C000D4600F2888016AB734A009338464FF02A
:108F2C00CC33414602F032FA169B179A9B0843EA5F
:108F3C00827303EB8303BB42DDE9129A0CD13846F2
:108F4C00414600F0A1F9069B83428CBF0027012704
:108F5C00002612E00126B7E7099B002B53D1013FF5
:108F6C0048F1FF31B81B61F1000100F08DF9069B4F
:108F7C00099F83428CBF002601260D9B002B40F0DD
:108F8C009380DDF82CB04FF00008CDF82080CDF8A0
:108F9C0014804FF00A0ADDE91201FFF7F5FE149B6D
:108FAC001093CDE90E0118461599FFF7EDFE0E9BB7
:108FBC000F9A119198420B469341814680F08E8016
:108FCC0020462946FFF7E0FE109A0AFB09F393426C
:108FDC0014BF002606F001060E9B12930F9BCDE9E1
:108FEC001339119B1593089BB8F1000F14BF002780
:108FFC0007F0010701330AFB10485FFA88F8089361
:10900C0004460D46C7E7B81C48F1000100F03CF9D6
:10901C00069B83428CBF00200120B9EB00006AF153
:10902C000002CDE9120200273E46A6E7129B139AD6
:10903C00013B42F1FF32CDE91232012788E7B9F149
:10904C003E0FF0D84FF0FF33A9F1200003FA09F2DC
:10905C0003FA00F0C9F1200123FA01F102430A439B
:10906C0003FA09F327EA030728EA020857EA080774
:10907C000CBF012700276BE700FB02FCA1FB0012D1
:10908C00013362448C4275EB020CF5D2069A134400
:10909C000C9A1344D20F9342B8BF13460B9A9A42C0
:1090AC00A8BF1A4693466EE70A2100220123084600
:1090BC00E8E70AFB03F0A2FB0A23013103449442C4
:1090CC0075EB0300F5D2594510DDBBF1000F02D151
:1090DC0054EA05030AD00123059371E70A22002301
:1090EC000121ECE7CCFBFFFFCDCCCCCC7EB34FF019
:1090FC000A0A149B15990F931846FFF745FE0F9B10
:10910C000E910AFB00F29A42814620D1DDE9120150
:10911C00FFF73AFE10900F9120462946FFF734FED8
:10912C000F9B109A1292CDE913390E9B1593089B45
:10913C00B8F1000F14BF002707F0010701330AFB39
:10914C0010485FFA88F8089304460D46D1E7069B51
:10915C00089A13449946002F5AD0B8F1050F57D1ED
:10916C0014F001034AD1059A32B9DDE914239D426A
:10917C0008BF94425FD0059B18194FF00A0445F1C3
:10918C000001002201262546A04271EB020755D2B0
:10919C00F3B1B3451CDA0D9B73B10C9A06EB0903C2
:1091AC001A441346012A0B9AB8BF01239A42A8BF4E
:1091BC001A46964293460BDD05304FF00A024FF0EB
:1091CC00000341F10001FBF783F909F10109013EAC
:1091DC005E45A8BF5E4637B20FFA89F9079B09FABC
:1091EC0086F607F10508013E98444FF00009B94591
:1091FC002BDB079B0A9A1E601A71F8E5059B2BB9AD
:10920C00DDE914239D4208BF944209D00123B3E742
:10921C00059B53B9DDE914239D4208BF944204D148
:10922C00099B002BF2D1002EF0D0B8F1040F94BFA3
:10923C0000230123A0E74FF00408F1E705FB02F738
:10924C00A4FB054201363A449EE70A220023FBF7B1
:10925C003FF9303208F8012D09F10109C7E700BFC9
:10926C00014B5843800C704741340100014B58436B
:10927C00000D7047FB2E0B00024B5843C00C013005
:10928C00704700BF4F9312000A4A70B503464FF067
:10929C00CC3600204FF0333506FB03F402FB0144BF
:1092AC00A3FB023121449D4275EB010401D3013033
:1092BC00F2E770BDCDCCCCCC2DE9F04F1A23354E56
:1092CC00B0FBF3FA03FB1A0389B004460D4606EB18
:1092DC000A1653B9D6E90023C1E90023D6E90201E5
:1092EC00C5E9020109B0BDE8F08F2B4A02EBC303BC
:1092FC00D3E9008904AB0093D6E9022340464946E2
:10930C0002F044F806AB0093D6E9002383460F46DF
:10931C004046494602F03AF8DDE9066216EB0B06C8
:10932C0052EB07084FF0000328BF0123814633B1ED
:10933C00049B059A013342F10002CDE90432204628
:10934C000391FFF799FF07461A2000FB0AF0FFF77D
:10935C0093FF3F1A3246434603990097484602F062
:10936C0030F84FEA141C0D4A640004F01E0352F846
:10937C002C40DC4004F00304241841F10001C5E941
:10938C000041DDE9042300973046414602F019F80C
:10939C00A6E700BF88BA0000B8B900001CBE0000E8
:1093AC002DE9F04F1A27DFF8ECA000F11905B5FBF9
:1093BC00F7F56F433A1A4FEA051B89B004460E467F
:1093CC000AEB05150AD1D5E90023C1E90023D5E93B
:1093DC000201C6E9020109B0BDE8F08F2B4B03EB8B
:1093EC00C203D3E9008904AB0093D5E902234046BC
:1093FC00494601F0CBFF5AF80B206B68013ACDE9D6
:10940C00020106A963F1000300914046494601F0B0
:10941C00BDFFDDE906528A4602996D18039952EB9D
:10942C0001084FF0000328BF0123814633B1049B90
:10943C00059A013342F10002CDE904323846FFF7B8
:10944C001BFF07462046FFF717FF3F1A2A464346E5
:10945C0000974846514601F0B4FF4FEA141C0C4AE1
:10946C00640004F01E0352F82C40DC4004F00304AA
:10947C000134241841F10001C6E90041DDE904235F
:10948C0000972846414601F09CFFA2E7B8B90000BE
:10949C0070BE000058BB000010EE103A07B5204A11
:1094AC0023F00043934207D8DFED1E0A002003B0DF
:1094BC005DF804EB00F0A4B8B3F1FF4F04D303B094
:1094CC005DF804EB00F030B8684600F0E1F800F00D
:1094DC00030001280CD0022811D0D0B9DDED010A0F
:1094EC009DED000A012000F08BF803B05DF804FB41
:1094FC00DDED010A9DED000A00F02AF8F5E7DDED3F
:10950C00010A9DED000A012000F07AF8B1EE400A44
:10951C00EBE7DDED010A9DED000A00F019F8F5E727
:10952C00D80F493F0000000008B52DED028BB0EEBE
:10953C00408A02F004F820B138EE080ABDEC028B28
:10954C0008BDDFED027A87EEA70AF7E700000000FE
:10955C0010EE103A23F00043B3F1485FB7EE007AF7
:10956C003BD360EE006ADFED1E5A9FED1E6A1E4A69
:10957C0006EEA56A9342DFED1D5A56EE265A9FED74
:10958C001C6A05EEA66ADFED1B5A56EE265A9FEDB5
:10959C001A6A05EEA66A60EE200A26EE266AF6EE38
:1095AC00007A56EE260A66EEA77A04D877EEE07AB1
:1095BC0037EE670A7047114A93429ABF03F17F4313
:1095CC0006EE903AF5EE026A77EEE67A37EE660A28
:1095DC0077EEE07A30EE670A7047B0EE470A7047D4
:1095EC004ED747ADF6740F319999993E7CF293346E
:1095FC00010DD037610BB63AABAA2A3D0000483FAB
:10960C0010EE103A23F00043B3F1485FF0EE407ACD
:10961C0001D200F069B960EE006A9FED167ADFEDB9
:10962C00165A56EE875A9FED157A05EEA67ADFED9F
:10963C00145A57EE265A9FED137A20EE266A05EE41
:10964C00A67A40B9DFED105A56EE875A45EE867A67
:10965C00B0EE670A704726EE077AF6EE005A10EE67
:10966C00A57A57EE260A9FED097A46EE470A30EEA8
:10967C00600A7047D3C92E2F342FD7321BEF3836E0
:10968C00010D50398988083CABAA2A3EABAA2ABEE8
:10969C00F0B510EE105A864A25F00043934287B07D
:1096AC00044605D8002380ED000A4360002022E028
:1096BC00804A93423AD825F00043002DDFED7E7AA4
:1096CC007E4A23F00F0318DD934230EE670A09BF80
:1096DC00DFED7B7A9FED7B7A9FED7B7A30EE670A2C
:1096EC0070EE477A30EE670AC0ED007A30EE470A2A
:1096FC0080ED010A012007B0F0BD934230EE270A3D
:10970C0009BFDFED6F7A9FED6F7A9FED6F7A30EEC8
:10971C00270A70EE077A30EE670AC0ED007A30EE59
:10972C00070A80ED010A4FF0FF30E4E7674A9342E5
:10973C0070D8B0EEC00A9FED667AF6EE007A40EE75
:10974C00077AFDEEE77AF8EEE76A17EE900ADFED9E
:10975C005A7A06EEE70A1F28DFED5A7A66EEA77AE8
:10976C0030EE677A17EE106A09DC5A49471E25F06D
:10977C00004251F8271022F0FF028A4206D1C6F3AC
:10978C00C751DA15C1EBD353082B14DC266094EDCA
:10979C00007A30EE470A002D30EE670A84ED010A9C
:1097AC00A9DAB1EE477AB1EE400A84ED007A84ED85
:1097BC00010A40429FE7DFED427A9FED436A66EE75
:1097CC00A77A30EE677A30EE470A70EE677A56EE7B
:1097DC00867A37EE676A16EE101AC1F3C753D31A9E
:1097EC00192B04DC84ED006AB0EE470ACFE7DFEDFD
:1097FC003A7A66EEA77A37EE670A37EE407A77EE5A
:10980C00677A9FED367A56EE877A30EE677A84ED7A
:10981C00007ABCE7B3F1FF4F06D330EE400A80ED7F
:10982C00010A80ED000A41E7DA15863AA3EBC25330
:10983C0007EE903ABDEEE77ADFED296AB8EEC77A0B
:10984C0077EEC77A8DED037A67EEA67ABDEEE77AEE
:10985C00B8EEC77A77EEC77A8DED047A67EEA67A02
:10986C00F5EE407AF1EE10FACDED057A1ED1B5EE9B
:10987C00407AF1EE10FA0CBF012302231949019131
:10988C000221009103A8214600F03CF8002DBFF600
:10989C0032AFD4ED007AF1EE677AC4ED007AD4EDF4
:1098AC00017AF1EE677AC4ED017A82E70323E5E7EA
:1098BC00D80F493FE3CB1640800FC93FD00FC93FAB
:1098CC00004435374344353708A3852E800F494370
:1098DC0084F9223FC8BE000000A3852E32318D24AE
:1098EC000000804348BF00009FED057AF7EE007A38
:1098FC0077EE877A82B0CDED017A019B02B070478A
:10990C00000080002DE9F04F2DED048BD9B090466E
:10991C009B46669ABE4BDDF89CC153F822A0019081
:10992C0018F1040F0F460BF1FF3325DBB8F10302DE
:10993C0048BF08F10402D210551CE900D41A9FED5F
:10994C00B87A0291A8EBC5050AEB03060DF1700974
:10995C000CEB840E0021B14210DD1CA901EB8B0134
:10996C000DF588790026564526DCDDF804E0DFEDA0
:10997C00AC7A0C46002016E00022DDE7CC425DBF3D
:10998C005EF8210007EE900AF8EEE77AF0EE477ADF
:10999C00E9EC017A0131DEE7FEEC016A94ED007A24
:1099AC0046EE877A01309842A4F10404F4DDE9EC28
:1099BC00017A01360431D6E708A901EB8A010CEBD8
:1099CC008202DFED968A9FED949A0491039254469D
:1099DC00A200059258AA02EB840212ED140A44A9C3
:1099EC0008AA01EB8401164620460028A1F10401C7
:1099FC004EDC2846CDE9063200F002FAB0EE408A81
:109A0C00B4EE000A28EE000A00F060FAF2EE007ADA
:109A1C0000EE678A002DDDE90632FDEEC87A17EEFE
:109A2C00909AF8EEE77A38EE678A43DD601E08A953
:109A3C00C5F1080C51F8206046FA0CF1894401FA82
:109A4C000CF1761A08A941F82060C5F107010E4106
:109A5C00002E3EDD4FF0000C09F101096046644513
:109A6C006ADC002D05DD012D00F08380022D00F055
:109A7C008B80022E2DD1B7EE000A30EE488A40B30F
:109A8C002846069300F0BCF9069B38EE408A20E08D
:109A9C0060EE287A0138FDEEE77AF8EEE77A07EE09
:109AAC00C90ABDEEC00AA6EC010A91ED000A37EE18
:109ABC00800A9AE705D1611E08A850F82160F611BA
:109ACC00C6E7F6EE007AB4EEE78AF1EE10FA31DA78
:109ADC000026B5EE408AF1EE10FA40F0A380611E2C
:109AEC000020514557DA002871D0013C08AB083DE5
:109AFC0053F82430002BF8D02846B7EE000A00F0BB
:109B0C007FF9631C44AA9FED457A990002EB83020E
:109B1C002346002B80F2B4802346002BC0F2D28067
:109B2C0044AA02EB8305DFF8ECC0DFED3D7A0020A0
:109B3C00E21ABCE002268DE796465EF8041B60B97B
:109B4C0081B10CF1010CC1F5807164454EF8041C17
:109B5C000DDDDEF8001002F1080EC1F1FF014EF828
:109B6C00041C01210CF1010C7246084677E7012018
:109B7C0077E7611E08AA52F8212002F07F020DF14E
:109B8C00200C4CF8212074E7611E08AA52F8212001
:109B9C0002F03F02F3E708AA52F8212001391043E2
:109BAC009FE7013251F8040D0028FAD0059901F510
:109BBC00B071694404EB0B000DF1700C661C4C3950
:109BCC000CEB80002244B24204DA144600E70499FC
:109BDC000122E7E7039CDDF804C054F82640059405
:109BEC0007EE904AF8EEE77A0024E0EC017ADFED1C
:109BFC000C7A86469C4203DDE1EC017A0136E2E701
:109C0C00FCEC016A3EED017A013446EE877AF1E70D
:109C1C008CC2000060C20000000080430000803B4A
:109C2C0000000000029BB0EE480AA3EB080000F015
:109C3C00E7F81FED077AB4EEC70AF1EE10FA19DB5C
:109C4C005FED0A7A60EE277A08AAFDEEE77A08350E
:109C5C00F8EEE77A07EEC70AFDEEE77ABDEEC00A2A
:109C6C0010EE103A42F8243017EE903A013442F8D4
:109C7C00243041E7BDEEC00A08AA10EE103AF6E710
:109C8C0008A850F82300019007EE900AF8EEE77A46
:109C9C00013B67EE807A20EE070A62ED017A38E725
:109CAC00FCEC016AB5EC017A46EE877A013050453E
:109CBC0001DC8242F4DA58A800EB820242ED287AE9
:109CCC00013B2AE7669B022B09DC002B2BDC44D0E2
:109CDC0009F0070059B0BDEC048BBDE8F08F669B12
:109CEC00032BF5D130AA0B1F13441A46204600282B
:109CFC00A2F1040252DC2246012AA3F104035DDC2A
:109D0C0030AB5FED397A0B44012C67DCDDED306A4A
:109D1C009DED317A002E67D1C7ED006A87ED017A8F
:109D2C00C7ED027AD4E730AB1FED437A0B442246E1
:109D3C00002A24DA4EB3F1EE477AC7ED007ADDED56
:109D4C00307A77EEC77A31AA01239C4220DA0EB121
:109D5C00F1EE677AC7ED017ABAE730AB5FED507A76
:109D6C000B44002C05DA0EB1F1EE677AC7ED007AE0
:109D7C00AEE733ED017A013C77EE877AF1E773EDCC
:109D8C00017A013A37EE277AD2E7F0EE477AD4E738
:109D9C00B2EC017A013377EE877AD6E7D2ED007A0E
:109DAC00D2ED016A37EEA67A013877EEC77A82EDEA
:109DBC00007A77EEA67AC2ED017A98E7D3ED007AB5
:109DCC00D3ED016A37EEA67A013A77EEC77A83EDC6
:109DDC00007A77EEA67AC3ED017A8DE733ED017A3E
:109DEC00013C77EE877A8FE7F1EE666AB1EE477A3F
:109DFC00C7ED006A87ED017AF1EE677A90E700BF54
:109E0C00024610EE100AC0F3C75320F0004183B98C
:109E1C00A9B3DFED1B7A1B4960EE277A8A4217EE55
:109E2C00900AC0F3C753A3F1190307DAC00F00F06F
:109E3C002DB8FF2B02D130EE000A70474CF2503196
:109E4C008A4202DDC00F00F031B81344FE2BF9DC5E
